{
  "_format": "hh-sol-artifact-1",
  "contractName": "Lock",
  "sourceName": "contracts/Lock.sol",
  "abi": [
    {
      "inputs": [
        {
          "internalType": "uint256",
          "name": "num",
          "type": "uint256"
        }
      ],
      "name": "notEven",
      "type": "error"
    },
    {
      "inputs": [],
      "name": "favourateNumber",
      "outputs": [
        {
          "internalType": "uint256",
          "name": "",
          "type": "uint256"
        }
      ],
      "stateMutability": "view",
      "type": "function"
    },
    {
      "inputs": [
        {
          "internalType": "uint256",
          "name": "_num",
          "type": "uint256"
        }
      ],
      "name": "updateFavNum",
      "outputs": [
        {
          "internalType": "bool",
          "name": "",
          "type": "bool"
        }
      ],
      "stateMutability": "nonpayable",
      "type": "function"
    }
  ],
  "bytecode": "0x608060405260bd60005534801561001557600080fd5b50610252806100256000396000f3fe608060405234801561001057600080fd5b50600436106100365760003560e01c8063b7796c941461003b578063c404d7f514610059575b600080fd5b610043610089565b604051610050919061010d565b60405180910390f35b610073600480360381019061006e9190610159565b61008f565b60405161008091906101a1565b60405180910390f35b60005481565b60008160006002826100a191906101eb565b036100e357806040517faa7eb52c0000000000000000000000000000000000000000000000000000000081526004016100da919061010d565b60405180910390fd5b826000819055506001915050919050565b6000819050919050565b610107816100f4565b82525050565b600060208201905061012260008301846100fe565b92915050565b600080fd5b610136816100f4565b811461014157600080fd5b50565b6000813590506101538161012d565b92915050565b60006020828403121561016f5761016e610128565b5b600061017d84828501610144565b91505092915050565b60008115159050919050565b61019b81610186565b82525050565b60006020820190506101b66000830184610192565b92915050565b7f4e487b7100000000000000000000000000000000000000000000000000000000600052601260045260246000fd5b60006101f6826100f4565b9150610201836100f4565b925082610211576102106101bc565b5b82820690509291505056fea2646970667358221220e620d1808cb53905aa1dd6604b433381cc3edc9ef272ff070e72d23d6d73d0d564736f6c63430008130033",
  "linkReferences": {},
  "deployedLinkReferences": {}
}