{
  "address": "0x5FbDB2315678afecb367f032d93F642f64180aa3",
  "abi": [
    {
      "inputs": [
        {
          "internalType": "int256",
          "name": "value",
          "type": "int256"
        }
      ],
      "stateMutability": "nonpayable",
      "type": "constructor"
    },
    {
      "inputs": [],
      "name": "_currentPrice",
      "outputs": [
        {
          "internalType": "int256",
          "name": "",
          "type": "int256"
        }
      ],
      "stateMutability": "view",
      "type": "function"
    },
    {
      "inputs": [],
      "name": "latestRoundData",
      "outputs": [
        {
          "internalType": "uint80",
          "name": "roundId",
          "type": "uint80"
        },
        {
          "internalType": "int256",
          "name": "answer",
          "type": "int256"
        },
        {
          "internalType": "uint256",
          "name": "startedAt",
          "type": "uint256"
        },
        {
          "internalType": "uint256",
          "name": "updatedAt",
          "type": "uint256"
        },
        {
          "internalType": "uint80",
          "name": "answeredInRound",
          "type": "uint80"
        }
      ],
      "stateMutability": "view",
      "type": "function"
    }
  ],
  "transactionHash": "0xc3499187f1223d901bec22c8776b2b1d6cac580d481d8315ef2893f971497a4a",
  "args": [
    40000000
  ],
  "numDeployments": 1,
  "solcInputHash": "5b6d409fa399b4b7ff574d5a1db2c877",
  "bytecode": "0x608060405234801561001057600080fd5b506040516102543803806102548339818101604052810190610032919061007a565b80600081905550506100a7565b600080fd5b6000819050919050565b61005781610044565b811461006257600080fd5b50565b6000815190506100748161004e565b92915050565b6000602082840312156100905761008f61003f565b5b600061009e84828501610065565b91505092915050565b61019e806100b66000396000f3fe608060405234801561001057600080fd5b50600436106100365760003560e01c80633bdd280e1461003b578063feaf968c14610059575b600080fd5b61004361007b565b60405161005091906100bc565b60405180910390f35b610061610081565b604051610072959493929190610115565b60405180910390f35b60005481565b6000806000806000600160005442426001945094509450945094509091929394565b6000819050919050565b6100b6816100a3565b82525050565b60006020820190506100d160008301846100ad565b92915050565b600069ffffffffffffffffffff82169050919050565b6100f6816100d7565b82525050565b6000819050919050565b61010f816100fc565b82525050565b600060a08201905061012a60008301886100ed565b61013760208301876100ad565b6101446040830186610106565b6101516060830185610106565b61015e60808301846100ed565b969550505050505056fea2646970667358221220c99011799732e49910014be52ad114cbe779fece08f4292e44e1055086343d9564736f6c63430008130033",
  "devdoc": {
    "kind": "dev",
    "methods": {},
    "version": 1
  },
  "userdoc": {
    "kind": "user",
    "methods": {},
    "version": 1
  },
  "storageLayout": {
    "storage": [
      {
        "astId": 235,
        "contract": "contracts/MockAggregator.sol:MockAggregator",
        "label": "_currentPrice",
        "offset": 0,
        "slot": "0",
        "type": "t_int256"
      }
    ],
    "types": {
      "t_int256": {
        "encoding": "inplace",
        "label": "int256",
        "numberOfBytes": "32"
      }
    }
  }
}